:10010000413A2048454C502020202020202020200B
:10011000423A2054494D4520444953504C415920BE
:10012000433A20555020434F554E544552202020ED
:10013000443A20444F574E20434F554E5445522089
:10014000453A2041444330204845582044495350C3
:10015000463A204144433020566F6C7461676520F5
:10016000433A2054494D4520443A204144433020ED
:1001700000453A20434E542020463A20552F442033
:10018000200054494D4500323031380020360120DE
:100190003802204D504338324735313620414443F0
:1001A000302000040F120F0A1F02001F111F111F21
:0B01B0001111001F11111F11111F0081
:0300030002030BEA
:0D030B00C0E0C0F0C083C082C0D075D00833
:100318001208ABE53114600D24FD604124047070AF
:1003280012062D806B7F011208577F887E131208F2
:10033800B57F0C1208577F86120857752300E523EE
:1003480090018293FF1207C00523E523C39404405C
:10035800ED7FC41208571203A6D21180337F011211
:1003680008577F887E131208B57F0C12085775232B
:1003780000E52390019293FF1207C00523E523C3EC
:10038800941040ED752200752100D209D208D20AD6
:0303980030B2FD83
:0B039B00D0D0D082D083D0F0D0E03270
:03000B0002088761
:0D088700300009D52F06C200C28CD2B43259
:0300130002067A68
:0D067A00C0E0C0F0C083C082C0D075D008C1
:1006870012002EE537B4FF02801D8537267F887E4E
:10069700131208B512002EE537B4FF028009E526CC
:1006A700653760087539FF75A0F0800612001612CD
:0206B70006C477
:0B06B900D0D0D082D083D0F0D0E0324F
:03002B00020707C2
:10070700C0E0C0F0C083C082C0D075D018C2CF157A
:1007170032E532D39400501C75320A300902D208F0
:100727001533E533D39400500B75330A1207F330B2
:0F0737001102D210D0D0D082D083D0F0D0E032D7
:10043800C281E4F522F521F520758902F58CF58A4B
:1004480075320A75330AF5C875CDB8F5CCD2CA75B8
:10045800CBB8F5CA120783A2B6E433FFA2B7E433D8
:1004680025E02FF536E4F5311204B3E4F534F53818
:10047800F53575A0F0D2A8D288D2AAD2A9D2B9D21D
:10048800ADD2BDD2AF7F0A7E0012026B30100712C8
:1004980003A6C21080EF3008EC300AE91205267F67
:0B04A800C61208571205DAC20880DAFD
:0A08AB00E4F52FD200C2B4D28C2273
:1004B300E4F522F5217F80120857E4F52DE5317527
:1004C300F00684E5F0C454F02400F582E43401F529
:1004D30083E582252DF582E43583F583E493FF12CA
:1004E30007C0052DE52DC3941040D27FC0120857D5
:1004F300E4F52DE5310475F00684E5F0C454F024E9
:1005030000F582E43401F583E582252DF582E43597
:1005130083F583E493FF1207C0052DE52DC39410E3
:0205230040D1C5
:0105250022B3
:10062D00E4F522F5217F011208577F887E13120809
:10063D00B57F0C1208577F80120857E4F524E52486
:10064D0090016093FF1207C00524E524C394104068
:10065D00ED7FC0120857E4F524E52490017193FF56
:0C066D001207C00524E524C3941040EDE2
:01067900225E
:1007F3000535E535C3943C401BE4F5350538E5384C
:10080300C3943C400FE4F5380534E534C3941840F1
:0508130003E4F53422AE
:1003A6007FC41208577F0C12085785342AE52A7530
:1003B600F00A84FF70047F20800474302FFF120738
:1003C600C0E52A75F00A8485F02A7430252AF52AB4
:1003D600FF1207C07F3A1207C085382AE52A75F052
:1003E6000A84FF70047F20800474302FFF1207C038
:1003F600E52A75F00A8485F02A7430252AF52AFF45
:100406001207C07F3A1207C085352AE52A75F00A19
:1004160084FF70047F20800474302FFF1207C0E52C
:100426002A75F00A8485F02A7430252AF52AFF02F7
:0204360007C0FD
:1006C40075A0F0E53924F470391208AB7F011208E3
:1006D400577F887E131208B57F0C1208577F861245
:1006E4000857E4F527E52790018293FF1207C00518
:1006F40027E527C3940440ED7FC41208571203A6CC
:02070400D21110
:0107060022D0
:0908BF00759121E4F592F58E22F9
:1005260075C588E5C530E4FBE4F5C5AFC6EF75F0E3
:1005360004A4AEF0ADBE7C002DF516EC3EF51575A7
:10054600C588E5C530E4FBE4F5C5AFC6EF75F00434
:10055600A42516FFE51535F0FEADBE7C00EF2DFD9A
:10056600EC3EFCE41201C01201F98E158F16E5155A
:09057600C313F515E51613F51683
:01057F002259
:1005800075C58DE5C530E4FBE4F5C5AFC6EF75F084
:1005900004A4AEF0ADBE7C002DF516EC3EF515754D
:1005A000C58DE5C530E4FBE4F5C5AFC6EF75F004D5
:1005B000A42516FFE51535F0FEADBE7C00EF2DFD40
:1005C000EC3EFCE41201C01201F98E158F16E51500
:0905D000C313F515E51613F51629
:0105D90022FF
:1005DA0085152A85162BE52AFFC3940A4004740759
:1005EA002FFF74302FFF1207C0E52AC4F854F0C851
:1005FA00E52BC4540F48540FFFC3940A40047407F0
:10060A002FFF74302FFF1207C0E52B540FFFC3943E
:10061A000A400474072FFF74302FFF1207C07F208F
:03062A000207C004
:10002E007539FF7537FF75A0FEE5A0B4EE0785A004
:10003E003775390F22E5A0B4DE0785A03775390E66
:10004E0022E5A0B4BE0785A03775390D22E5A0B410
:10005E007E0785A03775390C2275A0FDE5A0B4ED9D
:10006E000785A03775390B22E5A0B4DD0785A037CB
:10007E0075390A22E5A0B4BD0785A0377539092266
:10008E00E5A0B47D0785A0377539082275A0FBE57C
:10009E00A0B4EB0785A03775390722E5A0B4DB07BE
:1000AE0085A03775390622E5A0B4BB0785A0377544
:1000BE00390522E5A0B47B0785A037753904227572
:1000CE00A0F7E5A0B4E70785A03775390322E5A0B0
:1000DE00B4D70785A03775390222E5A0B4B70785D6
:1000EE00A03775390122E5A0B4770685A037E4F56F
:0200FE003922A5
:1000160075A0F0E5A0B4F0FB7F887E131208B5E565
:04002600A0B4F0ECA6
:01002A0022B3
:080746008F108B118A12891338
:10074E007F40120857E4F514E51075F008A4FFC3B6
:10075E00E5149FE5F06480F87480985017AB11AAE9
:10076E0012A913851482758300120230FF1207C07E
:04077E00051480D40A
:010782002254
:100783007F301208A07F887E131208B57F301208CD
:10079300A07FC87E001208B57F301208A07F201208
:1007A30008A07F281208577F011208577F887E13FD
:0D07B3001208B57F0C1208577F0602085788
:0B08A000EF120874C2817F640208841C
:100857008F2EE52E120874C2817F64120884E52E5C
:0D086700C454F0120876C2817F6402088438
:1007C0008F2EE52E54F3FFE580540C4FF580D28038
:1007D000120880C2817F64120884E52EC454F0FFA1
:1007E000E580540C4FF580D280120880C2817F646E
:0307F00002088478
:0908B500EF1F70011EEF4E70F7F9
:0108BE002217
:1008740054F3FFE580540C4FF580C280D2817F642D
:02088400DFFE95
:01088600224F
:04026B008E2A8F2B1D
:10026F00E52B152B7002152AA2B6E433FFA2B7E4D3
:10027F003325E02FF52C65366078852C36640270B7
:10028F0038E52CB402047F0180027F00E52CB40115
:10029F00047E0180027E00EE4F6003120818E52CE9
:1002AF00B403047F0180027F00E52C70047E01807F
:1002BF00027E00EE4F603B8036E52CB403047F01D5
:1002CF0080027F00E52C70047E0180027E00EE4FDD
:1002DF006003120818E52CB402047F0180027F002E
:1002EF00E52CB401047E0180027E00EE4F60031204
:0B02FF000838E52B452A600302026F5F
:01030A0022D0
:10083800E4F53B053AE53AB40414E4F53AE53170D9
:0F08480005753105800215311208AB1204B32279
:10081800E4F53A053BE53BB40415E4F53BE531B4B2
:100828000505E4F531800205311208AB1204B32244
:1001BB0075F020800E75F010800575F0087D007EBF
:1001CB00007F003392D530D50312025DEC33401023
:1001DB00EF33FFEE33FEED33FDEC33FCD5F0ED22C8
:0E01EB00E5F0247EA2D513CC92E7CDCEFF2204
:1001F900EDD2E7CD33EC3392D524814006E4FFFEFE
:10020900FDFC22FCE4CFCECDCC24E0501174FF805C
:10021900EDC3CC13CCCD13CDCE13CECF13CF0470F9
:07022900F030D5DE02025D9A
:030000000208945F
:0C089400787FE4F6D8FD75813B02043843
:10023000BB010CE58229F582E5833AF583E0225083
:1002400006E92582F8E622BBFE06E92582F8E222CD
:0D025000E58229F582E5833AF583E49322E7
:0E025D00C3E49FFFE49EFEE49DFDE49CFC22B2
:00000001FF
