:1012340020202020202020202020202020202020AA
:10124400003941343137303138004120414443358D
:1012540020446563696D616C20204220414443351C
:101264002042696E61727920202043204144433535
:1012740020566F6C746167652034442041444335C3
:1012840020566F6C746167652033452041444335B3
:1012940020566F6C746167652032462041444335A3
:1012A40020566F6C74616765203147204142434486
:1012B40020435720526F7461746548205550202094
:1012C40020436F756E74657220344920444F574E25
:1012D40020436F756E7465722034433A2054494D2F
:1012E4004520443A20414443302000453A20434EAF
:1012F400542020463A20552F4420200054494D457F
:10130400003230313800203601203802204D50435D
:1013140038324735313620414443302000040F121F
:101324000F0A1F02001F111F111F1111001F11119D
:051334001F11111F0054
:0C1CE10002530000024E0000024B000005
:03000300020D519A
:0D0D5100C0E0C0F0C083C082C0D075D008E3
:100D5E00121CF9752300752200752000E54DB409AB
:100D6E00004003020ED0900D7BF8282873020D96DA
:100D7E00020DC4020DF2020E20020E4E020E7B0276
:100D8E000ED0020EA8020EBD7F01121C917F887E2E
:100D9E0013121D037F0C121C91752500E52590136F
:100DAE001093FF121B790525E525C3941040EDD253
:100DBE0011D212020ED07F01121C917F887E131267
:100DCE001D037F0C121C91752500E52590131093C1
:100DDE00FF121B790525E525C3941040EDD211D2E3
:100DEE0013020ED07F01121C917F887E13121D03F9
:100DFE007F0C121C91752500E52590131093FF12A0
:100E0E001B790525E525C3941040EDD211D21702AA
:100E1E000ED07F01121C917F887E13121D037F0C52
:100E2E00121C91752500E52590131093FF121B7966
:100E3E000525E525C3941040EDD211D216020ED031
:100E4E007F01121C917F887E13121D037F0C121CD2
:100E5E0091752500E52590131093FF121B7905253A
:100E6E00E525C3941040EDD211D21580557F0112A5
:100E7E001C917F887E13121D037F0C121C91752509
:100E8E0000E52590131093FF121B790525E525C368
:100E9E00941040EDD211D21480287F01121C917F44
:100EAE00887E13121D037F0C121C91D20180137FBA
:100EBE0001121C917F887E13121D037F0C121C9150
:050ECE00D20330B2FD6B
:0B0ED300D0D0D082D083D0F0D0E0322D
:03000B00021CD400
:0D1CD400300809D54906C208C28CD2B432CE
:030013000219E3EC
:0D19E300C0E0C0F0C083C082C0D075D00845
:1019F00012140CE557B4FF02801D8557277F887E9F
:101A000013121D0312140CE557B4FF028009E527D9
:101A1000655760087559FF75A0F080061200161210
:021A200018317B
:0B1A2200D0D0D082D083D0F0D0E032D2
:03002B0002157E3D
:10157E00C0E0C0F0C083C082C0D075D018C2CF15F5
:10158E0050E550D39400507975500A300110D200B6
:10159E007B007A007953752F2775300F8028300322
:1015AE0014D2027B007A007953752F007530007DBE
:1015BE000F7C27802E300516D2047B007A00794EE0
:1015CE00752F0075307BE4FDFC121A2D801F30073D
:1015DE0017D2067B007A00794E752F007530007D8C
:1015EE007B7C00121A748005301102D2101551E561
:1015FE0051D39400500B75510A121C08301902D2A7
:0C160E0018D0D0D082D083D0F0D0E032D1
:10112A00C281E4F523F522F521758902F58CF58A49
:10113A0075500A75510AF5C875CDB8F5CCD2CA757D
:10114A00CBB8F5CA121B3CA2B6E433FFA2B7E4330C
:10115A0025E02FF556E4F54D1217BCE4F552F55883
:10116A00F55575A0F0D2A8D288D2AAD2A9D2B9D2FE
:10117A00ADD2BDD2AF7F0A7E001214DE3000071254
:10118A001740C20080EF300207121740C20280E502
:10119A0030040FAD4FAC4E7F037E00121748C204D5
:1011AA0080D330060FAD4FAC4E7F037E0012174836
:1011BA00C20680C13010BE30120F1218E97FC01269
:1011CA001C91121C2DC21080AC30130F1218E97F2B
:1011DA00C0121C91121BACC210809A30170C121844
:1011EA00E97FC0121C917F04801C30160C1218E98A
:1011FA007FC0121C917F03800D3015141218E97FED
:10120A00C0121C917F027E00121BDEC21002117FE7
:10121A0020140302117F1218E97FC0121C917F016A
:0A122A007E00121BDEC21002117FCD
:0A1CF900E4F549D208C2B4D28C22EF
:1017BC00E4F523F522F5207F80121C91E4F535E544
:1017CC004D75F00984E5F0C454F0244EF582E434F0
:1017DC0012F583E5822535F582E43583F583E493B0
:1017EC00FF121B790535E535C3941040D27FC0122A
:1017FC001C91E4F535E54D0475F00984E5F0C4540D
:10180C00F0244EF582E43412F583E5822535F58219
:10181C00E43583F583E493FF121B790535E535C375
:04182C00941040D103
:011830002295
:10199600E4F523F5227F01121C917F887E13121D28
:1019A600037F0C121C917F80121C91E4F517E5173A
:1019B6009012DE93FF121B790517E517C3941040AA
:1019C600ED7FC0121C91E4F517E5179012EF93FF17
:0C19D600121B790517E517C3941040EDB3
:0119E20022E2
:101C08000555E555C3943C401BE4F5550558E55882
:101C1800C3943C400FE4F5580552E552C39418406C
:051C280003E4F5522267
:1018310075A0F0E4F523F522F520121CF9E55924F1
:10184100F360220470477F01121C917F887E13127E
:101851001D037F0C121C91E54C6401454B7003D2B2
:101861000522D207227F01121C917F887E13121D4F
:10187100037F0C121C91E54C6401454B7007F54B3D
:0D188100F54CD20722754B00754C01D205C5
:01188E002237
:08174000AD54AC537F047E00A0
:081748008E328F338C348D3595
:101750007FC1121C91E4F536F537C3E5379533E5C3
:10176000326480F8E5366480985050C3E53395378D
:10177000CFE5329536CF24FFFDEF34FFFC1200D3C6
:101780008F428E418D408C3F7F007E007D207C41CA
:1017900012101312010CAC34AD35CFCDCFCECCCE60
:1017A0001205047C007D0A120504ED2430FF121B93
:0B17B000790537E53770A30536809FF0
:0117BB00220B
:10094C007F84121C91E4F5157F0A7E001214DE20C0
:10095C001A03020B74E51590124593FF121B7905CF
:10096C0015E515C3940840E0E4F5157F0A7E0012E6
:10097C0014DE201A03020B747FC0121C918515160D
:10098C00E516C39404501B7F0A7E001214DE201A55
:10099C0003020B74E51690123493FF121B790516A3
:1009AC0080DEE4F5167F0A7E001214DE201A0302A4
:1009BC000B74E51690124593FF121B790516E5167C
:1009CC00C3940840E0E4F516E516C39515501B7F5B
:1009DC000A7E001214DE201A03020B74E516901224
:1009EC003493FF121B79051680DE7F507EC31214E0
:1009FC00DE0515E515C3940450030209777F0A7EC2
:100A0C00001214DE201A03020B747FC0121C91E436
:100A1C00F5157F0A7E001214DE201A03020B747F78
:100A2C00C0121C91E4F516E516C39515501B7F0AF0
:100A3C007E001214DE201A03020B74E51690123499
:100A4C0093FF121B79051680DEE4F5167F0A7E00F3
:100A5C001214DE201A03020B74E51690124593FF54
:100A6C00121B790516E516C3940840E0851516E5AA
:100A7C0016C39408501B7F0A7E001214DE201A0342
:100A8C00020B74E51690123493FF121B7905168035
:100A9C00DE7F507EC31214DE201A03020B74051580
:100AAC00E515C394085003020A1E7F0A7E00121437
:100ABC00DE7FC0121C91E4F5157F0A7E001214DE55
:100ACC00201A03020B74E51590123493FF121B7954
:100ADC000515E515C3941040E0E4F515E515C39430
:100AEC00084003020A097F0A7E001214DE301A78CD
:100AFC007FC0121C91851516E516C3940850187FFB
:100B0C000A7E001214DE301A5FE51690123493FF41
:100B1C00121B79051680E1E4F5167F0A7E0012148B
:100B2C00DE301A44E51690124593FF121B79051618
:100B3C00E516C3940840E3E4F516E516C395155085
:100B4C00187F0A7E001214DE301A1DE5169012343E
:100B5C0093FF121B79051680E17F507EC31214DEC1
:080B6C00301A050515020AE824
:010B7400225E
:091D0D00759121E4F592F58E2296
:10188F0075C588E5C530E4FBE4F5C5AFC6EF75F067
:10189F0004A4AEF0ADBE7C002DF55DEC3EF55C759D
:1018AF00C588E5C530E4FBE4F5C5AFC6EF75F004B8
:1018BF00A4255DFFE55C35F0FEADBE7C00EF2DFD90
:1018CF00EC3EFCE41200D312010C8E5C8F5DE55CE4
:0918DF00C313F55CE55D13F55D32
:0118E80022DD
:1018E90075C58DE5C530E4FBE4F5C5AFC6EF75F008
:1018F90004A4AEF0ADBE7C002DF55DEC3EF55C7543
:10190900C58DE5C530E4FBE4F5C5AFC6EF75F00458
:10191900A4255DFFE55C35F0FEADBE7C00EF2DFD35
:10192900EC3EFCE41200D312010C8E5C8F5DE55C89
:09193900C313F55CE55D13F55DD7
:011942002282
:10194300855C5A855D5BE55AFFC3940A40047407BE
:101953002FFF74302FFF121B79E55AC4F854F0C8D7
:10196300E55BC4540F48540FFFC3940A4004740743
:101973002FFF74302FFF121B79E55B540FFFC394C5
:101983000A400474072FFF74302FFF121B797F2046
:03199300021B79BB
:101C2D00AB5DAA5CEAFF7E00C4F854F0C8EBC45467
:101C3D000F487C00540FFD7A00EB540FFB120B750F
:051C4D007F20021B795D
:101BAC00855C32855D33E532FF7E0012133EE532F3
:101BBC00C4F854F0C8E533C4540F48121339E53354
:101BCC001213397FC0121C917F20121B797F2002C7
:021BDC001B7973
:05133900540FFF7E00CF
:10133E00EE600302140BEFB41000400302140B9086
:10134E001354F828287302138402138802138C0294
:10135E00139002139402139802139C0213A002130B
:10136E00A40213AD0213B60213BF0213C80213D6A2
:10137E000213E40213F77F30801E7F3080237F300C
:10138E0080287F30802D7F3080327F30803C7F30D0
:10139E0080467F3080557F31121B797F3080227FCF
:1013AE0031121B797F3080277F31121B797F30807D
:1013BE002C7F31121B797F3080367F31121B797F63
:1013CE0031121B797F30801A7F31121B797F3112D7
:1013DE001B797F30801F7F31121B797F31121B7971
:1013EE007F31121B797F3080117F31121B797F3153
:0D13FE00121B797F31121B797F31121B7990
:01140B0022BE
:100B7500EF753800F537EDC4F8540FC868FFECC4BD
:100B850054F048FEE5382FCFE5373ECF2BF53AEF49
:100B95003AF539D3E53A94E7E53994034079753365
:100BA50004E4F534E534C395334003020D50C3E541
:100BB500339534FFE49400CF24FFFDEF34FFFCE4CC
:100BC5001200D38F428E418D408C3F7F007E007D89
:100BD500207C41121013C004C005C006C007AC3903
:100BE500AD3AE41200D3D003D002D001D0001200F8
:100BF5003112010C8E358F367C007D0A1204AF8CC4
:100C0500358D36E5362430F536E43535F535AF36F0
:100C1500121B790534808DD3E53A9463E539940048
:100C25005003020CA87F20121B79753303E4F534B9
:100C3500E534C395334003020D50C3E5339534FFC6
:100C4500E49400CF24FFFDEF34FFFCE41200D38FC2
:100C5500428E418D408C3F7F007E007D207C41127D
:100C65001013C004C005C006C007AC39AD3AE41284
:100C750000D3D003D002D001D00012003112010CF4
:100C85008E358F367C007D0A1204AF8C358D36E5A6
:100C9500362430F536E43535F535AF36121B790592
:100CA50034808DD3E53A9409E53994005003020D5B
:100CB500397F20121B797F20121B79753302E4F5E9
:100CC50034E534C395334003020D50C3E533953401
:100CD500FFE49400CF24FFFDEF34FFFCE41200D3C2
:100CE5008F428E418D408C3F7F007E007D207C4170
:100CF500121013C004C005C006C007AC39AD3AE4F4
:100D05001200D3D003D002D001D00012003112015D
:100D15000C8E358F367C007D0A1204AF8C358D36EE
:100D2500E5362430F536E43535F535AF36121B7921
:100D35000534808D7F20121B797F20121B797F203F
:0B0D4500121B79E53A2430FF121B79E5
:010D50002280
:10071D00EF754100F540EDC4F8540FC868FFECC407
:10072D0054F048FEE5412FCFE5403ECF2BCF3AFEAA
:10073D00E48F458E44F543F542E53B6404453A604C
:10074D0003020821AD43AC427B507AC3F9F8120580
:10075D00BC8F458E448D438C42E47BFF7A03F9F8C0
:10076D00121ABB8F458E448D438C42E47B107A2741
:10077D00F9F8121ABBEF2430FF121B797F2E121BD2
:10078D0079E47B107A27F9F8AF45AE44AD43AC421E
:10079D00121ABBAC00AD01AE02AF03E47BE87A03E5
:1007AD00F9F8121ABBEF2430FF121B79E47BE87ABB
:1007BD0003F9F8AF45AE44AD43AC42121ABBAC00E1
:1007CD00AD01AE02AF03E47B64FAF9F8121ABBEF88
:1007DD002430FF121B79E47B64FAF9F8AF45AE447F
:1007ED00AD43AC42121ABBAC00AD01AE02AF03E497
:1007FD007B0AFAF9F8121ABBEF2430FF121B79E4C9
:10080D007B0AFAF9F8AF45AE44AD43AC42121ABBC0
:10081D00EB020945E53B6403453A707AAE3EAF3FC6
:10082D007C137D8812049D8E3E8F3F7C037DFF12CD
:10083D0004AF8E3E8F3F7C037DE81204AFEF243072
:10084D00FF121B797F2E121B79AE3EAF3F7C037DCD
:10085D00E81204AF7E007F64CFCDCFCECCCE120494
:10086D00AFEF2430FF121B79AE3EAF3F7C007D64AD
:10087D001204AF7E007F0ACFCDCFCECCCE1204AF07
:10088D00EF2430FF121B79AE3EAF3F7C007D0A1284
:10089D0004AFED020945E53B6402453A705AAE3EA0
:1008AD00AF3F7C017DF412049D8E3E8F3F7C037D16
:1008BD00FF1204AF8E3E8F3F7C007D641204AFEFBC
:1008CD002430FF121B797F2E121B79AE3EAF3F7C79
:1008DD00007D641204AF7E007F0ACFCDCFCECCCE8B
:1008ED001204AFEF2430FF121B79AE3EAF3F7C00F8
:1008FD007D0A1204AFED8040E53B6401453A703E40
:10090D00AE3EAF3FFC7D3212049D8E3E8F3F7C0389
:10091D007DFF1204AF8E3E8F3F7C007D0A1204AF27
:10092D00EF2430FF121B797F2E121B79AE3EAF3FA5
:0E093D007C007D0A1204AFED2430FF121B79FE
:01094B002289
:041BDE008E328F3381
:101BE200AB5DAA5CEAFF7E00C4F854F0C8EBC454B3
:101BF2000F487C00540FFD7A00EB540FFB85323AFC
:061C020085333B02071DC3
:10140C007559FF7557FF75A0FEE5A0B4EE0785A0D2
:10141C005775590F22E5A0B4DE0785A05775590EF4
:10142C0022E5A0B4BE0785A05775590D22E5A0B4DE
:10143C007E0785A05775590C2275A0FDE5A0B4ED6B
:10144C000785A05775590B22E5A0B4DD0785A05779
:10145C0075590A22E5A0B4BD0785A0577559092214
:10146C00E5A0B47D0785A0577559082275A0FBE54A
:10147C00A0B4EB0785A05775590722E5A0B4DB078C
:10148C0085A05775590622E5A0B4BB0785A05775F2
:10149C00590522E5A0B47B0785A057755904227520
:1014AC00A0F7E5A0B4E70785A05775590322E5A07E
:1014BC00B4D70785A05775590222E5A0B4B70785A4
:1014CC00A05775590122E5A0B4770685A057E4F51D
:0214DC00592293
:1000160075A0F0E5A0B4F0FB7F887E13121D03E502
:04002600A0B4F0ECA6
:01002A0022B3
:081AFF008F108B118A1289136C
:101B07007F40121C91E4F514E51075F008A4FFC39B
:101B1700E5149FE5F06480F87480985017AB11AA1C
:101B270012A913851482758300120470FF121B79A2
:041B3700051480D43D
:011B3B002287
:101B3C007F30121CEE7F887E13121D037F30121C27
:101B4C00EE7FC87E00121D037F30121CEE7F201228
:101B5C001CEE7F28121C917F01121C917F887E1332
:0D1B6C00121D037F0C121C917F06021C91BC
:0B1CEE00EF121CAEC2817F64021CBE1E
:101C91008F38E538121CAEC2817F64121CBEE53854
:0D1CA100C454F0121CB0C2817F64021CBE4E
:101B79008F46E54654F3FFE580540C4FF580D2803B
:101B8900121CBAC2817F64121CBEE546C454F0FF20
:101B9900E580540C4FF580D280121CBAC2817F6453
:031BA900021CBE5D
:091D0300EF1F70011EEF4E70F796
:011D0C0022B4
:101CAE0054F3FFE580540C4FF580C280D2817F64DF
:021CBE00DFFE47
:011CC0002201
:101CC100AD07EDD39400400A7FE87EFD121D031D90
:021CD10080F0A1
:011CD30022EE
:0414DE008E328F3388
:1014E200E533153370021532A2B6E433FFA2B7E436
:1014F2003325E02FF53465566078853456640270E2
:1015020038E534B402047F0180027F00E534B4017F
:10151200047E0180027E00EE4F6003121C52E5340D
:10152200B403047F0180027F00E53470047E0180F1
:10153200027E00EE4F603B8036E534B403047F0147
:1015420080027F00E53470047E0180027E00EE4F4F
:101552006003121C52E534B402047F0180027F0052
:10156200E534B401047E0180027E00EE4F60031276
:0B1572001C72E533453260030214E2F6
:01157D00224B
:101C7200E4F55F055EE55EB40414E4F55EE54D70DF
:0F1C820005754D088002154D121CF91217BC2272
:101C5200E4F55E055FE55FB40415E4F55FE54DB4B8
:101C62000805E4F54D8002054D121CF91217BC223D
:101A2D008C2D8D2E12053AFFAEF0C39530E52F6447
:101A3D0080F8EE64809840047D0180027D00C3EF44
:101A4D00952EE52D6480F8EE64809850047F01801A
:101A5D00027F00EF4D6008E52D852EF002059DE417
:071A6D0075F001120565226E
:101A74008C2D8D2E12053AFFAEF0D39530E52F64F0
:101A840080F8EE64809850047D0180027D00D3EFDD
:101A9400952EE52D6480F8EE64809840047F0180E3
:101AA400027F00EF4D6008E52D852EF002059D7440
:071AB400FFF5F012056522A9
:10002E00020182EC5D046005E85904700302017858
:10003E00120143580460F6EC4860F2EC7004FDFEC9
:10004E00FF22C860DB2481C85009C39860025006A5
:10005E0002017F9850CAF582E9294B4A7005AB829E
:10006E0002016E75F0007C1A7880C3EF9BEE9AED5C
:10007E0099400DC3EF9BFFEE9AFEED99FDE842F01D
:10008E00DC23ACF0D0E0FFD0E0FED0E0FDAB822070
:10009E00E7101BEB60BAEC2CFCEF33FFEE33FEEDFA
:1000AE0033FD02015AE803F830E705C0F075F000A1
:1000BE00EF2FFFEE33FEED33FD40B830E7C280AADE
:1000CE0075F020800E75F010800575F0087D007EAD
:1000DE00007F003392D530D50312060BEC3340105F
:1000EE00EF33FFEE33FEED33FDEC33FCD5F0ED22B6
:0E00FE00E5F0247EA2D513CC92E7CDCEFF22F2
:10010C00EDD2E7CD33EC3392D524814006E4FFFEEB
:10011C00FDFC22FCE4CFCECDCC24E0501174FF804A
:10012C00EDC3CC13CCCD13CDCE13CECF13CF0470E7
:07013C00F030D5DE02060BD6
:101013008F3E8E3D8D3C8C3BE4FFFE7D807C3FAB61
:101023003EAA3DA93CA83B1203A57009AF3EAE3DC5
:10103300AD3CAC3B22AF3EAE3DAD3CAC3B12018D73
:10104300FBAF42AE41AD40AC3F12018DFFBF010883
:10105300E4FFFE7D807C3F22EF64046022EB6404A6
:10106300601DBB0127E4FFFEFDFCAB42AA41A94082
:10107300A83F1203A560084006E4FFFEFDFC2274AE
:10108300FFF542F541F540F53F021121E4F543F543
:1010930044FFFEFDFCAB3EAA3DA93CA83B1203A5C1
:1010A300504BAF42AE41AD40AC3F12010C8E438F6B
:1010B30044AC43AD44EC1200D3C8ECC8C9EDC9CA73
:1010C300EECACBEFCBAF42AE41AD40AC3F1201AA6B
:1010D300E4FBFAF9F81203A570A5AF3EAE3DAD3CB3
:1010E300AC3B1204128F3E8E3D8D3C8C3BAF3EAE2B
:1010F3003DAD3CAC3B120F12AB42AA41A940A83F05
:1011030012029F1216528F428E418D408C3FE5444E
:1011130030E00B1204128F428E418D408C3FAF4260
:07112300AE41AD40AC3F22DC
:10014300E9D2E7C933E833F892D5EDD2E7CD33EC02
:0701530033FC5002B2D5227B
:10015A00EC30E7100FBF000C0EBE00080DBD000406
:10016A000BEB6014A2D5EB13FCED92E7FD2274FFB2
:10017A00FCFDFEFF22E480F8A2D574FF13FC7D800B
:03018A00E480EF1F
:10018D00ED33EC33601004700FED547F7005740285
:0A019D0092E0227404220422E422FE
:1001A700020178E86480F8E933E83360110460F00D
:1001B700ED33EC337009E8FCE9FDEAFEEBFF2204BE
:1001C70060DED3EB9FEA9EE99DE8C2E78CF0C2F7B9
:1001D70095F0400CE8CCF8E9CDF9EACEFAEBCFFB85
:1001E70012014385D0F05804700320D5B3E804709A
:1001F700075002B2D502018292D5EC0460F7E4CC35
:10020700C0E0C398F8603B94186008400DD0E0FB4D
:1002170002015AE4FBFAC9FC8028E830E406E4C985
:10022700FBE4CAFCE830E305E4C9CACBFCE85407A1
:100237006010F8C3E913F9EA13FAEB13FBEC13FCAC
:10024700D8F130F52FC3E49CFCEF9BFFEE9AFEED4F
:1002570099FDD0E0FBEF4E4D4C701222DB030201FB
:100267007FEC2CFCEF33FFEE33FEED33FDED30E793
:10027700EB02015AEF2BFFEE3AFEED39FDD0E0FB22
:1002870050130BBB0003020182ED13FDEE13FEEFCB
:0802970013FFEC13FC02015AF5
:10029F00EC4D6011E8497017ED33EC3304600DE459
:1002AF00FCFFFEFD22E933E8330470F802017812F7
:1002BF00014358046009E4CC2481500628500902F8
:1002CF00018228400302017FC0E0EB4A7044B980ED
:1002DF0006D0E0FB02016EEF4E701CBD8008EBFFF5
:1002EF00EAFEE9FD80EBE98DF0A4FEE5F00203885C
:1002FF00E9CDF9EAFEEBFFEF89F0A4FCE5F0CE893A
:10030F00F0A42EFFE435F0CD89F0A42DFEE435F0F6
:10031F008067EF4E7005BD80D780C3EF8BF0A4AC24
:10032F00F0EE8BF0A42CFCE435F0F8EF8AF0A42C5F
:10033F00E5F038FCE433CB8DF0A42CFCE5F03BF872
:10034F00EE8AF0A42CFCE5F038F8E433CF89F0A462
:10035F002CFCE5F038CF3400CE89F0A42FFFE5F068
:10036F003EFEE433C98DF0A42EFEE5F039CD8AF0C0
:10037F00A42FFFE5F03EFEE43DFD33D0E0FB500738
:10038F000BBB000F020182EC2CFCEF33FFEE33FEB0
:06039F00ED33FD02015ADE
:1003A50074F8CC6480CCC86480C8F582046043C30B
:1003B500EB9FF5F0EA9E42F0E99D42F0E89C45F09E
:1003C50060305018E5825FFFE582F42B5582FB50C3
:1003D500210ABA001D09B90019088016E5825BFBE0
:1003E500E582F42F5582FF50090EBE00050DBD00B4
:1003F500010CC3EB9FF5F0EA9E42F0E99D42F0E85F
:0D0405009C45F06007CC4820E701B3EC22D5
:10041200ED33EC33600A047003BD8004ECB2E7FCF8
:0104220022B7
:10161A0033DA929E35B16011377FE5FE392184892C
:10162A003AAEC3FF3C1D955B3D6358473E75FDF0DE
:10163A003F3172183F800000C2D502018202017850
:10164A00BD80FA50F302017FED33EC330460F17B85
:10165A003B7AAA79B8783F12029FED33EC3392D5E0
:10166A00247B5011A2D570DB500BED44802404502A
:10167A0004A2D580CEEFFBEEFAEDF9ECF812010CDC
:10168A00EFF582F404FC1200D81201AEC082901663
:10169A001A7409120432ED33CC33D0F092D525F006
:0A16AA00A2D57001C313CC13FD227A
:100EDE003E9248DA3ECCCCCD3F2AAAAB4000000071
:100EEE003F8000003F9837F03FB504F33FD744FCF6
:100EFE003E3172173EB172173F0515913EDE5BD93A
:100F0E00D2208002C220EDD2E7F8CD33EC3304704C
:100F1E000BBD800592D502018202017840FBD314ED
:100F2E0060F2F5F07C3FEE7A00C39496C8948B4045
:100F3E00230AC89469C8941A401A0AC89468C894B7
:100F4E001F40110AC8945AC89425400805F07A002B
:100F5E00CDC2E7CDC0F08C458D468E478F48EA2333
:100F6E0023C0E024EEF582E4340EF5831206291236
:100F7E0001AEECC0E0EDC0E0EEC0E0EFC0E0120666
:100F8E0019A845A946AA47AB481201AAD0E0FBD042
:100F9E00E0FAD0E0F9D0E0B2E7F81200318C458DDE
:100FAE00468E478F48900EDE7403120423A845A97F
:100FBE0046AA47AB4812029FD0E0600F24FAF58292
:100FCE00E4340EF5831206291201AE8C458D468E41
:100FDE00478F48D0E0C3947FFDE49400FC1200D309
:100FEE007B187A727931783F12029FA845A946AADA
:100FFE0047AB481201AE30200B7BD97A5B79DE7895
:05100E003E12029F22CA
:10042300C0E0EFFBEEFAEDF9ECF812029FD0E0F535
:10043300F0EFFBEEFAEDF9ECF8120619A3A3A3A370
:10044300E8C0E0E9C0E0EAC0E0EBC0E0C0F01202BF
:100453009F120629A3A3A3A31201AED0F0D0E0FB01
:0D046300D0E0FAD0E0F9D0E0F8D5F0D422D6
:030000000216B431
:0C16B400787FE4F6D8FD75815F0216FB1C
:10047000BB010CE58229F582E5833AF583E0225041
:1004800006E92582F8E622BBFE06E92582F8E2228B
:0D049000E58229F582E5833AF583E49322A5
:10049D00EF8DF0A4A8F0CF8CF0A428CE8DF0A42E73
:0204AD00FE222D
:1004AF00BC000BBE0029EF8DF084FFADF022E4CC31
:1004BF00F875F008EF2FFFEE33FEEC33FCEE9DECFA
:1004CF00984005FCEE9DFE0FD5F0E9E4CEFD22ED40
:1004DF00F8F5F0EE8420D21CFEADF075F008EF2F8A
:1004EF00FFED33FD4007985006D5F0F222C398FD7B
:0504FF000FD5F0EA2218
:10050400C2D5EC30E709B2D5E4C39DFDE49CFCEE12
:1005140030E715B2D5E4C39FFFE49EFE1204AFC3D7
:10052400E49DFDE49CFC80031204AF30D507C3E4D2
:060534009FFFE49EFE2281
:10053A00BB010A89828A83E0F5F0A3E0225006878C
:10054A00F009E71922BBFE07E3F5F009E31922894E
:0B055A00828A83E493F5F07401932281
:10056500BB010789828A83020639500B09C5F0272A
:10057500F7C5F01937F722BBFE0D09F8E325F0F3AF
:10058500C5F019E338F322F889828A83740193252B
:08059500F0C5F0F8E4933822F0
:10059D00BB010A89828A83F0E5F0A3F0225006F7A9
:0F05AD0009A7F01922BBFE06F3E5F009F31922A6
:1005BC00E88FF0A4CC8BF0A42CFCE98EF0A42CFCDE
:1005CC008AF0EDA42CFCEA8EF0A4CDA8F08BF0A45C
:1005DC002DCC3825F0FDE98FF0A42CCD35F0FCEBBB
:1005EC008EF0A4FEA9F0EB8FF0A4CFC5F02ECD3980
:0F05FC00FEE43CFCEAA42DCE35F0FDE43CFC22ED
:101ABB00C2D5E830E70FB2D5E4C39BFBE49AFAE456
:101ACB0099F9E498F8EC30E717B2D5121AF112062F
:101ADB008BE4C39BFBE49AFAE499F9E498F880034E
:101AEB0012068B30D50DE4C39FFFE49EFEE49DFDF3
:041AFB00E49CFC2249
:0E060B00C3E49FFFE49EFEE49DFDE49CFC2200
:10061900E493FC740193FD740293FE740393FF2227
:10062900E493F8740193F9740293FA740393FB2227
:1016C00002112AE493A3F8E493A34003F68001F205
:1016D00008DFF48029E493A3F85407240CC8C3332B
:1016E000C4540F4420C8834004F456800146F6DFFA
:1016F000E4800B0102040810204080901CE1E47E8D
:10170000019360BCA3FF543F30E509541FFEE493EE
:10171000A360010ECF54C025E060A840B8E493A3B5
:10172000FAE493A3F8E493A3C8C582C8CAC583CAE0
:10173000F0A3C8C582C8CAC583CADFE9DEE780BE98
:011CED0000F6
:10063900C5F0F8A3E028F0C5F0F8E582158270024C
:060649001583E038F022E9
:10064F0075F008758200EF2FFFEE33FECD33CDCC62
:10065F0033CCC58233C5829BED9AEC99E5829840E5
:10066F000CF582EE9BFEED9AFDEC99FC0FD5F0D6C2
:10067F00E4CEFBE4CDFAE4CCF9A88222B800C1B9EC
:10068F000059BA002DEC8BF084CFCECDFCE5F0CB2A
:10069F00F97818EF2FFFEE33FEED33FDEC33FCEB63
:1006AF0033FB10D703994004EB99FB0FD8E5E4F91E
:1006BF00FA227818EF2FFFEE33FEED33FDEC33FC0B
:1006CF00C933C910D7059BE99A4007EC9BFCE99AFF
:1006DF00F90FD8E0E4C9FAE4CCFB2275F010EF2F44
:1006EF00FFEE33FEED33FDCC33CCC833C810D70744
:1006FF009BEC9AE899400AED9BFDEC9AFCE899F87F
:0E070F000FD5F0DAE4CDFBE4CCFAE4C8F92211
:00000001FF
