:100E6F002020202020202020202020202020202073
:100E7F0000394134313730313800412053747564B3
:100E8F00656E7420494420524C2042205720434322
:100E9F005720526F746174652020432055502043B2
:100EAF006F756E746572203420204420444F574E66
:100EBF0020434F554E544552203445204144433032
:100ECF0020566F6C74616765203346204144433070
:100EDF0020446563696D616C202047204144433095
:100EEF002042696E617279202020433A2054494D87
:100EFF004520443A20414443302000453A20434E98
:100F0F00542020463A20552F4420200054494D4567
:100F1F00003230313800203601203802204D504346
:100F2F0038324735313620414443302000040F1208
:100F3F000F0A1F02001F111F111F1111001F111186
:050F4F001F11111F003D
:03000300021511D2
:10151100C0E0C0F0C083C082C0D075D0081219AB42
:10152100752300752100752200E53924FE601C1425
:10153100602E2403703D7F0112190C7F887E1312E7
:1015410019B57F0C12190CD21A80287F0112190CBF
:101551007F887E131219B57F0C12190CD2118013DA
:101561007F0112190C7F887E131219B57F0C121995
:101571000CD21330B2FDD0D0D082D083D0F0D0E0E5
:011581003237
:03000B0002198750
:0D198700300009D52506C200C28CD2B43252
:030013000216D6FC
:0D16D600C0E0C0F0C083C082C0D075D00855
:1016E300121027E53FB4FF02801D853F437F887EAC
:1016F300131219B5121027E53FB4FF028009E54321
:10170300653F60087541FF75A0F080061200161250
:0217130017209D
:0B171500D0D0D082D083D0F0D0E032E2
:03002B0002176A4F
:10176A00C0E0C0F0C083C082C0D075D018C2CF1507
:10177A003AE53AD394005021753A0A301102D21050
:10178A00301302D212153BE53BD39400500B753B44
:10179A000A121883301902D218D0D0D082D083D03E
:0417AA00F0D0E03269
:1010F900C281E4F523F521F520758902F58CF58A7D
:10110900753A0A753B0AF5C875CDB8F5CCD2CA75DA
:10111900CBB8F5CA1217EBA2B6E433FFA2B7E43392
:1011290025E02FF53EE4F53912149CE4F53CF54031
:10113900F53D75A0F0D2A8D288D2AAD2A9D2B9D247
:10114900ADD2BDD2AF7F0A7E001211A6301A0512A8
:1011590005E880F1301021E4F547E54725E024272B
:10116900F8E4F608F60547E547B409EE7DFF7CC9C2
:10117900E4FFFE120B2280CD3012CAE4F547E547A1
:1011890025E02427F876000876090547E547B409DC
:0D119900ED7DFF7CC9E4FFFE120C3D80A837
:0A19AB00E4F525D200C2B4D28C226C
:10149C00E4F523F521F5227F8012190CE4F558E5CB
:1014AC003975F00784E5F0C454F02489F582E434EE
:1014BC000EF583E5822558F582E43583F583E493B4
:1014CC00FF1218280558E558C3941040D27FC0125B
:1014DC00190CE4F558E5390475F00784E5F0C454AB
:1014EC00F02489F582E4340EF583E5822558F582E3
:1014FC00E43583F583E493FF1218280558E558C3A7
:04150C00941040D126
:0115100022B8
:10168900E4F523F5217F0112190C7F887E131219C5
:10169900B57F0C12190C7F8012190CE4F577E577E8
:1016A900900EF993FF1218280577E577C394104037
:1016B900ED7FC012190CE4F577E577900F0A93FFD7
:0C16C9001218280577E577C3941040ED57
:0116D50022F2
:10188300053DE53DC3943C401BE4F53D0540E54083
:10189300C3943C400FE4F540053CE53CC394184039
:0518A30003E4F53C2206
:10140A007FC412190C7F0C12190C853C45E54575F1
:10141A00F00A84FF70047F20800474302FFF1218B2
:10142A0028E54575F00A8485F04574302545F5456B
:10143A00FF1218287F3A121828854045E54575F0AD
:10144A000A84FF70047F20800474302FFF1218284A
:10145A00E54575F00A8485F04574302545F545FF64
:10146A001218287F3A121828853D45E54575F00A75
:10147A0084FF70047F20800474302FFF121828E53F
:10148A004575F00A8485F04574302545F545FF0217
:02149A00182810
:1017200075A0F0E4F523F521F5221219ABE541246B
:10173000F470367F0112190C7F887E131219B57F61
:101740000C12190C7F8612190CE4F544E544900F35
:101750001B93FF1218280544E544C3940440ED7F11
:09176000C412190C12140AD2196A
:01176900225D
:1005E8007F8412190CE4F5487F0A7E001211A620B8
:1005F8001A03020810E548900E8093FF1218280588
:1006080048E548C3940840E0E4F5487F0A7E0012B4
:1006180011A6201A030208107FC012190C85484938
:10062800E549C39404501B7F0A7E001211A6201AC4
:1006380003020810E549900E6F93FF121828054928
:1006480080DEE4F5497F0A7E001211A6201A030213
:100658000810E549900E8093FF1218280549E549CE
:10066800C3940840E0E4F549E549C39548501B7F29
:100678000A7E001211A6201A03020810E549900EFE
:100688006F93FF121828054980DE7F507EC3121130
:10069800A60548E548C3940450030206137F0A7E62
:1006A800001211A6201A030208107FC012190CE4C8
:1006B800F5487F0A7E001211A6201A030208107F4F
:1006C800C012190CE4F549E549C39548501B7F0A47
:1006D8007E001211A6201A03020810E549900E6F39
:1006E80093FF121828054980DEE4F5497F0A7E0049
:1006F8001211A6201A03020810E549900E8093FFF4
:100708001218280549E549C3940840E0854849E599
:1007180049C39408501B7F0A7E001211A6201A03B1
:10072800020810E549900E6F93FF121828054980BA
:10073800DE7F507EC31211A6201A03020810054856
:10074800E548C3940850030206BA7F0A7E001211D6
:10075800A67FC012190CE4F5487F0A7E001211A684
:10076800201A03020810E548900E6F93FF1218280C
:100778000548E548C3941040E0E4F548E548C394CB
:100788000840030206A57F0A7E001211A6301A78D7
:100798007FC012190C854849E549C3940850187F51
:1007A8000A7E001211A6301A5FE549900E6F93FF7A
:1007B800121828054980E1E4F5497F0A7E001211E4
:1007C800A6301A44E549900E8093FF12182805496F
:1007D800E549C3940840E3E4F549E549C395485021
:1007E800187F0A7E001211A6301A1DE549900E6F77
:1007F80093FF121828054980E17F507EC31211A685
:08080800301A050548020784BF
:0108100022C5
:040B22008C488D4925
:100B2600754A00754B09754C00754D00754E278E3C
:100B36004F8F50C3E5509549E54F95484003020C49
:100B46003C7FC012190C7F0A7E001211A6201003EA
:100B5600020C3CAB4CAA4DA94EAD4BAC4A1219291E
:100B6600E4F551F552C3E552954BE551954A4003DC
:100B7600020C317F0A7E001211A6201003020C3CE3
:100B8600E4F54FF550C3E550954BE54F954A50387F
:100B96007F0A7E001211A6201003020C3CE55025A8
:100BA600E0FFE54F33AB4CAA4DA94E8F82F5831279
:100BB60004F245F06008854F53855054800A05506D
:100BC600E55070C1054F80BDE4F54FF550C3E550C3
:100BD600954BE54F954A503E7F0A7E001211A6308E
:100BE6001054C3E5509554E54F955350047F20802B
:100BF60018E55025E0FFE54F33AB4CAA4DA94E8FC3
:100C060082F5831204F22430FF1218280550E550AD
:100C160070BB054F80B77F507EC31211A6301016E9
:100C26000552E55270020551020B6B0550E55070F6
:060C360002054F020B391C
:010C3C002295
:040C3D008C488D4909
:100C4100754A00754B09754C00754D00754E278E20
:100C51004F8F50C3E5509549E54F95484003020D2C
:100C6100577FC012190C7F0A7E001211A6201203B1
:100C7100020D57AB4CAA4DA94EAD4BAC4A121945CA
:100C8100E4F551F552C3E552954BE551954A4003C0
:100C9100020D4C7F0A7E001211A6201203020D578D
:100CA100E4F54FF550C3E550954BE54F954A503863
:100CB1007F0A7E001211A6201203020D57E550256E
:100CC100E0FFE54F33AB4CAA4DA94E8F82F583125D
:100CD10004F245F06008854F53855054800A055051
:100CE100E55070C1054F80BDE4F54FF550C3E550A7
:100CF100954BE54F954A503E7F0A7E001211A63072
:100D01001254C3E5509554E54F955350047F20800C
:100D110018E55025E0FFE54F33AB4CAA4DA94E8FA6
:100D210082F5831204F22430FF1218280550E55091
:100D310070BB054F80B77F507EC31211A6301216CB
:100D41000552E55270020551020C860550E55070BE
:060D510002054F020C54E4
:010D57002279
:0919BF00759121E4F592F58E22E8
:1015820075C588E5C530E4FBE4F5C5AFC6EF75F077
:1015920004A4AEF0ADBE7C002DF574EC3EF573757F
:1015A200C588E5C530E4FBE4F5C5AFC6EF75F004C8
:1015B200A42574FFE57335F0FEADBE7C00EF2DFD72
:1015C200EC3EFCE41200D312010C8E738F74E573AF
:0915D200C313F573E57413F574FD
:0115DB0022ED
:1015DC0075C58DE5C530E4FBE4F5C5AFC6EF75F018
:1015EC0004A4AEF0ADBE7C002DF574EC3EF5737525
:1015FC00C58DE5C530E4FBE4F5C5AFC6EF75F00469
:10160C00A42574FFE57335F0FEADBE7C00EF2DFD17
:10161C00EC3EFCE41200D312010C8E738F74E57354
:09162C00C313F573E57413F574A2
:011635002292
:1016360085736D85746EE56DFFC3940A4004740767
:101646002FFF74302FFF121828E56DC4F854F0C828
:10165600E56EC4540F48540FFFC3940A4004740740
:101666002FFF74302FFF121828E56E540FFFC39416
:101676000A400474072FFF74302FFF1218287F20AA
:031686000218281F
:1018A800AB74AA73EAFF7E00C4F854F0C8EBC454C2
:1018B8000F487C00540FFD7A00EB540FFB120811FF
:0518C8007F200218283A
:10185B0085736F857470E56FFF7E00120F59E56F0E
:10186B00C4F854F0C8E570C4540F48120F54E57017
:08187B00120F547F200218280F
:050F5400540FFF7E00B8
:100F5900EE6003021026EFB4100040030210269041
:100F69000F6FF8282873020F9F020FA3020FA70221
:100F79000FAB020FAF020FB3020FB7020FBB020F85
:100F8900BF020FC8020FD1020FDA020FE3020FF1FD
:100F9900020FFF0210127F30801E7F3080237F30C6
:100FA90080287F30802D7F3080327F30803C7F30B9
:100FB90080467F3080557F311218287F3080227F0C
:100FC900311218287F3080277F311218287F30800E
:100FD9002C7F311218287F3080367F311218287FF4
:100FE900311218287F30801A7F311218287F311268
:100FF90018287F30801F7F311218287F3112182856
:101009007F311218287F3080117F311218287F31E3
:0D1019001218287F311218287F3112182874
:0110260022A7
:10081100EF751500F514EDC4F8540FC868FFECC46A
:1008210054F048FEE5152FCFE5143ECF2BF517EF19
:100831003AF516D3E51794E7E51694034079751058
:1008410004E4F511E511C3951040030209ECC3E579
:10085100109511FFE49400CF24FFFDEF34FFFCE479
:100861001200D38F618E608D5F8C5E7F007E007D74
:10087100207C41120D58C004C005C006C007AC164B
:10088100AD17E41200D3D003D002D001D000120082
:100891003112010C8E128F137C007D0A12049D8C83
:1008A100128D13E5132430F513E43512F512AF134D
:1008B1001218280511808DD3E5179463E51694006D
:1008C10050030209447F20121828751003E4F51122
:1008D100E511C3951040030209ECC3E5109511FF22
:1008E100E49400CF24FFFDEF34FFFCE41200D38F2A
:1008F100618E608D5F8C5E7F007E007D207C411269
:100901000D58C004C005C006C007AC16AD17E412EF
:1009110000D3D003D002D001D00012003112010C5B
:100921008E128F137C007D0A12049D8C128D13E5AB
:10093100132430F513E43512F512AF1312182805FC
:1009410011808DD3E5179409E5169400500302092F
:10095100D57F201218287F20121828751002E4F57F
:1009610011E511C3951040030209ECC3E51095117F
:10097100FFE49400CF24FFFDEF34FFFCE41200D329
:100981008F618E608D5F8C5E7F007E007D207C415B
:10099100120D58C004C005C006C007AC16AD17E45F
:1009A1001200D3D003D002D001D0001200311201C5
:1009B1000C8E128F137C007D0A12049D8C128D13F4
:1009C100E5132430F513E43512F512AF131218288C
:1009D1000511808D7F201218287F201218287F2072
:0B09E100121828E5172430FF12182818
:0109EC0022E8
:101027007541FF753FFF75A0FEE5A0B4EE0785A0EB
:101037003F75410F22E5A0B4DE0785A03F75410E3D
:1010470022E5A0B4BE0785A03F75410D22E5A0B4F7
:101057007E0785A03F75410C2275A0FDE5A0B4ED84
:101067000785A03F75410B22E5A0B4DD0785A03FAA
:1010770075410A22E5A0B4BD0785A03F7541092245
:10108700E5A0B47D0785A03F7541082275A0FBE563
:10109700A0B4EB0785A03F75410722E5A0B4DB07A5
:1010A70085A03F75410622E5A0B4BB0785A03F7523
:1010B700410522E5A0B47B0785A03F754104227551
:1010C700A0F7E5A0B4E70785A03F75410322E5A097
:1010D700B4D70785A03F75410222E5A0B4B70785BD
:1010E700A03F75410122E5A0B4770685A03FE4F54E
:0210F700412294
:1000160075A0F0E5A0B4F0FB7F887E131219B5E554
:04002600A0B4F0ECA6
:01002A0022B3
:0817AE008F648B658A66896770
:1017B6007F4012190CE4F568E56475F008A4FFC3D0
:1017C600E5689FE5F06480F87480985017AB65AAC9
:1017D60066A967856882758300120470FF1218284F
:0417E600056880D43E
:0117EA0022DC
:1017EB007F301219A07F887E131219B57F30121922
:1017FB00A07FC87E001219B57F301219A07F20126E
:10180B0019A07F2812190C7F0112190C7F887E13E7
:0D181B001219B57F0C12190C7F0602190C72
:0B19A000EF121961C2817F640219710F
:10190C008F59E559121961C2817F64121971E55919
:0D191C00C454F0121963C2817F6402197176
:101828008F59E55954F3FFE580540C4FF580D28069
:1018380012196DC2817F64121971E559C454F0FF01
:10184800E580540C4FF580D28012196DC2817F64F7
:0318580002197101
:0919B500EF1F70011EEF4E70F7E8
:0119BE002206
:1019610054F3FFE580540C4FF580C280D2817F642F
:02197100DFFE97
:011973002251
:10197400AD07EDD39400400A7FE87EFD1219B51D32
:0219840080F0F1
:01198600223E
:0411A6008E558F567D
:1011AA00E556155670021555A2B6E433FFA2B7E408
:1011BA003325E02FF557653E607885573E64027007
:1011CA0038E557B402047F0180027F00E557B40175
:1011DA00047E0180027E00EE4F60031218CDE557AF
:1011EA00B403047F0180027F00E55770047E01800A
:1011FA00027E00EE4F603B8036E557B403047F0160
:10120A0080027F00E55770047E0180027E00EE4F67
:10121A0060031218CDE557B402047F0180027F00F3
:10122A00E557B401047E0180027E00EE4F6003128E
:0B123A0018EDE556455560030211AAAF
:011245002286
:1018ED00E4F5760575E575B40414E4F575E5397020
:0F18FD0005753906800215391219AB12149C2299
:1018CD00E4F5750576E576B40415E4F576E539B4F9
:1018DD000605E4F539800205391219AB12149C2264
:0A1377008B558A5689578C588D5902
:10138100E55924FFFFE55834FFAD07FCC394004045
:1013910077ED25E0FFEC338F82F5831204F2640AC6
:1013A10045F07064ED25E0FFEC338F82F583E4F5C1
:1013B100F0120577D3ED9400EC94004022ED24FF68
:1013C100FFEC34FFFEEF25E0FFEE33AB55AA56A943
:1013D100578F82F583E475F00112052A021377E431
:1013E100FDFCC3ED9559EC9558501DED25E0FFEC42
:1013F10033AB55AA56A9578F82F583E4F5F0120550
:08140100770DBD00010C80DA3B
:0114090022C0
:10192900ED24FFFFEC34FFFEEF25E0FFEE338F825D
:0C193900F583E475F00112052A02137713
:0A12E0008B558A5689578C588D599A
:1012EA00E55924FFFFE55834FFAD07FCC3940040DD
:1012FA007BED25E0FFEC338F82F5831204F2F47064
:10130A0003E5F0F47066ED25E0FFEC338F82F58398
:10131A00E475F009120577D3ED9400EC94004022AD
:10132A00ED24FFFFEC34FFFEEF25E0FFEE33AB5573
:10133A00AA56A9578F82F58374FFF5F012052A027F
:10134A0012E0E4FDFCC3ED9559EC9558501EED25CD
:10135A00E0FFEC33AB55AA56A9578F82F583E475A3
:0C136A00F0091205770DBD00010C80D9C0
:011376002254
:10194500ED24FFFFEC34FFFEEF25E0FFEE338F8241
:0C195500F58374FFF5F012052A0212E081
:10002E00020182EC5D046005E85904700302017858
:10003E00120143580460F6EC4860F2EC7004FDFEC9
:10004E00FF22C860DB2481C85009C39860025006A5
:10005E0002017F9850CAF582E9294B4A7005AB829E
:10006E0002016E75F0007C1A7880C3EF9BEE9AED5C
:10007E0099400DC3EF9BFFEE9AFEED99FDE842F01D
:10008E00DC23ACF0D0E0FFD0E0FED0E0FDAB822070
:10009E00E7101BEB60BAEC2CFCEF33FFEE33FEEDFA
:1000AE0033FD02015AE803F830E705C0F075F000A1
:1000BE00EF2FFFEE33FEED33FD40B830E7C280AADE
:1000CE0075F020800E75F010800575F0087D007EAD
:1000DE00007F003392D530D5031205A4EC334010C7
:1000EE00EF33FFEE33FEED33FDEC33FCD5F0ED22B6
:0E00FE00E5F0247EA2D513CC92E7CDCEFF22F2
:10010C00EDD2E7CD33EC3392D524814006E4FFFEEB
:10011C00FDFC22FCE4CFCECDCC24E0501174FF804A
:10012C00EDC3CC13CCCD13CDCE13CECF13CF0470E7
:07013C00F030D5DE0205A43E
:100D58008F5D8E5C8D5B8C5AE4FFFE7D807C3FABA3
:100D68005DAA5CA95BA85A1203A57009AF5DAE5CC9
:100D7800AD5BAC5A22AF5DAE5CAD5BAC5A12018D77
:100D8800FBAF61AE60AD5FAC5E12018DFFBF0108C5
:100D9800E4FFFE7D807C3F22EF64046022EB640464
:100DA800601DBB0127E4FFFEFDFCAB61AA60A95FE3
:100DB800A85E1203A560084006E4FFFEFDFC22744D
:100DC800FFF561F560F55FF55E020E66E4F562F524
:100DD80063FFFEFDFCAB5DAA5CA95BA85A1203A5E4
:100DE800504BAF61AE60AD5FAC5E12010C8E628F8E
:100DF80063AC62AD63EC1200D3C8ECC8C9EDC9CAD4
:100E0800EECACBEFCBAF61AE60AD5FAC5E1201AAAC
:100E1800E4FBFAF9F81203A570A5AF5DAE5CAD5B13
:100E2800AC5A1204128F5D8E5C8D5B8C5AAF5DAE2E
:100E38005CAD5BAC5A120A21AB61AA60A95FA85EDF
:100E480012029F12127E8F618E608D5F8C5EE56349
:100E580030E00B1204128F618E608D5F8C5EAF6183
:070E6800AE60AD5FAC5E223D
:10014300E9D2E7C933E833F892D5EDD2E7CD33EC02
:0701530033FC5002B2D5227B
:10015A00EC30E7100FBF000C0EBE00080DBD000406
:10016A000BEB6014A2D5EB13FCED92E7FD2274FFB2
:10017A00FCFDFEFF22E480F8A2D574FF13FC7D800B
:03018A00E480EF1F
:10018D00ED33EC33601004700FED547F7005740285
:0A019D0092E0227404220422E422FE
:1001A700020178E86480F8E933E83360110460F00D
:1001B700ED33EC337009E8FCE9FDEAFEEBFF2204BE
:1001C70060DED3EB9FEA9EE99DE8C2E78CF0C2F7B9
:1001D70095F0400CE8CCF8E9CDF9EACEFAEBCFFB85
:1001E70012014385D0F05804700320D5B3E804709A
:1001F700075002B2D502018292D5EC0460F7E4CC35
:10020700C0E0C398F8603B94186008400DD0E0FB4D
:1002170002015AE4FBFAC9FC8028E830E406E4C985
:10022700FBE4CAFCE830E305E4C9CACBFCE85407A1
:100237006010F8C3E913F9EA13FAEB13FBEC13FCAC
:10024700D8F130F52FC3E49CFCEF9BFFEE9AFEED4F
:1002570099FDD0E0FBEF4E4D4C701222DB030201FB
:100267007FEC2CFCEF33FFEE33FEED33FDED30E793
:10027700EB02015AEF2BFFEE3AFEED39FDD0E0FB22
:1002870050130BBB0003020182ED13FDEE13FEEFCB
:0802970013FFEC13FC02015AF5
:10029F00EC4D6011E8497017ED33EC3304600DE459
:1002AF00FCFFFEFD22E933E8330470F802017812F7
:1002BF00014358046009E4CC2481500628500902F8
:1002CF00018228400302017FC0E0EB4A7044B980ED
:1002DF0006D0E0FB02016EEF4E701CBD8008EBFFF5
:1002EF00EAFEE9FD80EBE98DF0A4FEE5F00203885C
:1002FF00E9CDF9EAFEEBFFEF89F0A4FCE5F0CE893A
:10030F00F0A42EFFE435F0CD89F0A42DFEE435F0F6
:10031F008067EF4E7005BD80D780C3EF8BF0A4AC24
:10032F00F0EE8BF0A42CFCE435F0F8EF8AF0A42C5F
:10033F00E5F038FCE433CB8DF0A42CFCE5F03BF872
:10034F00EE8AF0A42CFCE5F038F8E433CF89F0A462
:10035F002CFCE5F038CF3400CE89F0A42FFFE5F068
:10036F003EFEE433C98DF0A42EFEE5F039CD8AF0C0
:10037F00A42FFFE5F03EFEE43DFD33D0E0FB500738
:10038F000BBB000F020182EC2CFCEF33FFEE33FEB0
:06039F00ED33FD02015ADE
:1003A50074F8CC6480CCC86480C8F582046043C30B
:1003B500EB9FF5F0EA9E42F0E99D42F0E89C45F09E
:1003C50060305018E5825FFFE582F42B5582FB50C3
:1003D500210ABA001D09B90019088016E5825BFBE0
:1003E500E582F42F5582FF50090EBE00050DBD00B4
:1003F500010CC3EB9FF5F0EA9E42F0E99D42F0E85F
:0D0405009C45F06007CC4820E701B3EC22D5
:10041200ED33EC33600A047003BD8004ECB2E7FCF8
:0104220022B7
:1012460033DA929E35B16011377FE5FE3921848904
:101256003AAEC3FF3C1D955B3D6358473E75FDF0B6
:101266003F3172183F800000C2D502018202017828
:10127600BD80FA50F302017FED33EC330460F17B5D
:101286003B7AAA79B8783F12029FED33EC3392D5B8
:10129600247B5011A2D570DB500BED448024045002
:1012A60004A2D580CEEFFBEEFAEDF9ECF812010CB4
:1012B600EFF582F404FC1200D81201AEC08290123F
:1012C600467409120432ED33CC33D0F092D525F0B2
:0A12D600A2D57001C313CC13FD2252
:1009ED003E9248DA3ECCCCCD3F2AAAAB4000000067
:1009FD003F8000003F9837F03FB504F33FD744FCEC
:100A0D003E3172173EB172173F0515913EDE5BD92F
:100A1D00D2208002C220EDD2E7F8CD33EC33047042
:100A2D000BBD800592D502018202017840FBD314E3
:100A3D0060F2F5F07C3FEE7A00C39496C8948B403B
:100A4D00230AC89469C8941A401A0AC89468C894AD
:100A5D001F40110AC8945AC89425400805F07A0021
:100A6D00CDC2E7CDC0F08C698D6A8E6B8F6CEA2399
:100A7D0023C0E024FDF582E43409F5831205C2128A
:100A8D0001AEECC0E0EDC0E0EEC0E0EFC0E012055D
:100A9D00B2A869A96AAA6BAB6C1201AAD0E0FBD00F
:100AAD00E0FAD0E0F9D0E0B2E7F81200318C698DB0
:100ABD006A8E6B8F6C9009ED7403120423A869A9DB
:100ACD006AAA6BAB6C12029FD0E0600F2409F5820D
:100ADD00E4340AF5831205C21201AE8C698D6A8E5B
:100AED006B8F6CD0E0C3947FFDE49400FC1200D3B7
:100AFD007B187A727931783F12029FA869A96AAA88
:100B0D006BAB6C1201AE30200B7BD97A5B79DE7842
:050B1D003E12029F22C0
:10042300C0E0EFFBEEFAEDF9ECF812029FD0E0F535
:10043300F0EFFBEEFAEDF9ECF81205B2A3A3A3A3D8
:10044300E8C0E0E9C0E0EAC0E0EBC0E0C0F01202BF
:100453009F1205C2A3A3A3A31201AED0F0D0E0FB69
:0D046300D0E0FAD0E0F9D0E0F8D5F0D422D6
:030000000219944E
:0C199400787FE4F6D8FD7581780210F928
:10047000BB010CE58229F582E5833AF583E0225041
:1004800006E92582F8E622BBFE06E92582F8E2228B
:0D049000E58229F582E5833AF583E49322A5
:10049D00BC000BBE0029EF8DF084FFADF022E4CC43
:1004AD00F875F008EF2FFFEE33FEEC33FCEE9DEC0C
:1004BD00984005FCEE9DFE0FD5F0E9E4CEFD22ED52
:1004CD00F8F5F0EE8420D21CFEADF075F008EF2F9C
:1004DD00FFED33FD4007985006D5F0F222C398FD8D
:0504ED000FD5F0EA222A
:1004F200BB0110E58229F582E5833AF583E0F5F048
:10050200A3E0225009E92582F886F008E622BBFE24
:100512000AE92582F8E2F5F008E222E5832AF5836A
:08052200E993F5F0A3E993222F
:10052A00BB010DC58229C582C5833AC5830205D29E
:10053A005011C58229F808E5F026F618F5F0E5828B
:10054A0036F622BBFE11C58229F808E225F0F5F03D
:10055A00F218E23582F222F8E58229F582E5832A49
:0D056A00F58374019325F0F5F0E493382239
:10057700F8BB0111E58229F582E5833AF583E8F0B6
:10058700E5F0A3F0225009E92582C8F608A6F02273
:0D059700BBFE09E92582C8F2E5F008F2225A
:0E05A400C3E49FFFE49EFEE49DFDE49CFC2268
:1005B200E493FC740193FD740293FE740393FF228F
:1005C200E493F8740193F9740293FA740393FB228F
:1005D200C5F0F8A3E028F0C5F0F8E58215827002B4
:0605E2001583E038F02251
:00000001FF
